:100000000C9471010C9499010C9499010C94990130
:100010000C9499010C9499010C9499010C949901F8
:100020000C9499010C9425090C949C040C940E05D5
:100030000C9499010C9499010C9499010C949901D8
:100040000C9499010C9499010C9499010C949901C8
:100050000C9499010C9499010C9499010C94DB086F
:100060000C9499010C9499010C9499010C949901A8
:100070000C9499010C9499010C9499010C94990198
:100080000C9499010C9499010C9499010C94990188
:100090000C94B5090C9499010C9499010C94990154
:1000A0000C9499010C9499010C94990176077907A5
:1000B00068076C0770079A079A079A077D078107F8
:1000C00085078B078F079A07950707060504010028
:1000D000080A0B0C0D0900000000240027002A006C
:1000E0002D0030000000000200090F000003040191
:1000F000000C0000000000000000000000000000F4
:10010000000000080B0002020201000904000001C7
:10011000020200000524001001052401010104244D
:1001200002060524060001070581031000400904AA
:100130000100020A00000007050202400000070556
:1001400083024000000403090441726475696E6F04
:10015000204C4C430041726475696E6F204C656F92
:100160006E6172646F0012010002000000404123C2
:10017000368000010102030112010002EF0201407A
:100180004123368000010102030100000000250028
:1001900028002B002E003100000000002300260064
:1001A00029002C002F0004040404040304050202A7
:1001B0000202040302020202060606060606040400
:1001C0000202020404040802011040804010204092
:1001D000804080080204018040201002011080103D
:1001E0002040402000407A10F35A00A0724E1809B7
:1001F0000010A5D4E80000E87648170000E40B548E
:10020000020000CA9A3B000000E1F505000080965C
:100210009800000040420F000000A086010000008E
:10022000102700000000E803000000006400000048
:1002300000000A00000000000100000000002C7611
:10024000D888DC674F0823DFC1DFAE59E1B1B7962C
:10025000E5E3E453C63AE651997696E8E6C2842689
:10026000EB898C9B62ED407C6FFCEFBC9C9F40F265
:10027000BAA56FA5F490055A2AF75C936B6CF967E1
:100280006DC11BFCE0E40D47FEF520E6B500D0EDA6
:10029000902E0300943577050080841E080000200E
:1002A0004E0A000000C80C333333330F986E1283AC
:1002B0001141EF8D2114893BE65516CFFEE6DB1880
:1002C000D1844B381BF77C1D901DA4BBE424203245
:1002D00084725E228100C9F124ECA1E53D278511DD
:1002E000140D11241FBECFEFDAE0DEBFCDBF11E049
:1002F000A0E0B1E0E4EFF1E302C005900D92AE376B
:10030000B107D9F723E0AEE7B1E001C01D92A932F1
:10031000B207E1F711E0C0E7D1E004C02197FE0188
:100320000E943012CF36D107C9F70E941E0D0C94DF
:10033000ED180C940000409111025091120220918E
:100340000F023091100242175307B4F49091E80065
:100350009570E1F39091E80092FD19C08093F1004F
:10036000809111029091120201968F739927892B27
:1003700019F48EEF8093E80080911102909112029F
:100380000196909312028093110281E0089580E01B
:100390000895CF92DF92EF92FF920F931F93CF9326
:1003A000DF931F92CDB7DEB7182F062FE42E862FCE
:1003B000880F8E5F99830E949B0183E00E949B01BE
:1003C000F12EC12E9981D92E8C2D8F19801798F47A
:1003D000F601E7FE02C0849101C080810E949B016A
:1003E000182F80E00E949B018123FFEFCF1ADF0AC4
:1003F0008111EACF01C081E00F90DF91CF911F9171
:100400000F91FF90EF90DF90CF900895DF92EF92E1
:10041000FF920F931F93CF93DF93D82E8A017B0116
:10042000E40EF51EEB01CE15DF0571F0D7FE03C01B
:10043000FE01849101C088810E949B012196811157
:10044000F2CF8FEF9FEF01C0C801DF91CF911F91D5
:100450000F91FF90EF90DF900895615030F0209160
:10046000F100FC0120830196F8CF289884E6809360
:100470002D020895CF92DF92EF92FF920F931F9378
:10048000CF93DF936C017A018B01C0E0D0E0CE15F1
:10049000DF0589F0D8016D918D01D601ED91FC91B8
:1004A0000190F081E02DC6010995892B11F47E01A0
:1004B00002C02196ECCFC701DF91CF911F910F9120
:1004C000FF90EF90DF90CF900895CF93DF931F922E
:1004D000CDB7DEB76983DC01ED91FC910280F38139
:1004E000E02D41E050E0BE016F5F7F4F09950F9016
:1004F000DF91CF91089583E08093E9008091F2002D
:10050000882319F08AE38093E8000895FC0184852C
:10051000958597FD0BC09FB7F89482E08093E90022
:100520008091F2009FBF90E0019608959FB7F894E4
:1005300082E08093E9008091F2009FBF90E00895EF
:100540003FB7F89480910A0290910B02A0910C029F
:10055000B0910D0226B5A89B05C02F3F19F001965A
:10056000A11DB11D3FBFBA2FA92F982F8827820F39
:10057000911DA11DB11DBC01CD0142E0660F771F89
:10058000881F991F4A95D1F708952091190230913B
:100590001A022817390771F49091170280911802F6
:1005A000981741F0E0911702F0E0EB53FE4F808185
:1005B00090E008958FEF9FEF089508951F93CF93D4
:1005C000DF93DC015C962D913C915D9721153105FF
:1005D00039F481E090E013969C938E9312973DC07E
:1005E0005196ED91FC91529750969C915097892F7E
:1005F00080951FB75E964C915E9741FB772770F907
:1006000041FD6095F8944081772311F0492B01C09A
:1006100048234083E9012197F1F748E0508160FFCA
:1006200002C0592B01C058235083E9012197F1F7EB
:100630006695415099F7772321F090818923808333
:1006400003C08081982B90831FBF5C968D919C91F5
:100650005D970197F1F721E030E0C901DF91CF917B
:100660001F9108952091190230911A022817390715
:1006700071F4809118022091170290E0805C9F4FE6
:10068000821B910960E470E00E941C12089580E0D2
:1006900090E008952091190230911A022817390725
:1006A000B9F49091170280911802981789F0E0919F
:1006B0001702F0E0EB53FE4F80812091170230E0EB
:1006C0002F5F3F4F2F7333272093170290E0089539
:1006D0008FEF9FEF089585ED8093BC008091BC0063
:1006E00084FDFCCF1092770208954091A001262F3F
:1006F00030E0240F311D21323105DCF420917702E6
:100700002430C9F4FC0180E090E0861758F4309161
:10071000A0012191DC01A258BE4FA30FB11D2C9363
:100720000196F3CF8091A001680F6093A00180E053
:10073000089581E0089582E008950895E0913002DF
:1007400080912F02E81730F4F0E0EF5CFD4F8081DC
:1007500090E008958FEF9FEF08959091300280917F
:100760002F02981750F4E92FF0E0EF5CFD4F208145
:1007700030E09F5F9093300202C02FEF3FEFC9013E
:10078000089580912F0290E020913002821B910900
:100790000895CF92DF92EF92FF920F931F93CF9322
:1007A000DF937C01262F972F8A018091780288237E
:1007B00091F0C62FD72F6E01C40ED51ECC15DD05C6
:1007C00071F06991D701ED91FC910190F081E02DDC
:1007D000C7010995F3CF642F822F0E947503C801CA
:1007E000DF91CF911F910F91FF90EF90DF90CF900D
:1007F0000895CF93DF931F92CDB7DEB76983209121
:1008000078022223D1F020919B02203240F021E097
:1008100030E0FC013383228380E090E015C08091BA
:100820007902E82FF0E0E658FD4F998190838F5FC1
:100830008093790280939B0205C061E0CE0101960E
:100840000E94750381E090E00F90DF91CF910895B1
:100850000F931F93CF93DF931F92CDB7DEB782E044
:10086000898342E450E063E071E080E80E94060280
:100870000E94000DDC0112960D911C911397011539
:10088000110569F0D801ED91FC910280F381E02D12
:10089000BE016F5F7F4FC801099597FF07C089812F
:1008A0000F90DF91CF911F910F910895F80100856E
:1008B0001185E5CF0F931F93CF93DF931F92CDB791
:1008C000DEB78C01FC018485958597FF0EC0CE01B3
:1008D00001960E94D60C019719F4298130E002C0DC
:1008E0002FEF3FEFF80135872487F8018485958540
:1008F0000F90DF91CF911F910F910895CF93DF93C8
:100900001F92CDB7DEB7FC018485958597FD05C0A4
:100910002FEF3FEF358724870BC0CE0101960E9451
:10092000D60C019719F4898190E002C08FEF9FEFF8
:100930000F90DF91CF9108951F920F920FB60F92F3
:1009400011248F939F938091E1009091E100937F18
:100950009093E10083FF0FC01092E90091E0909323
:10096000EB001092EC0092E39093ED0010922E02B7
:1009700098E09093F00082FF20C093E09093E9000C
:100980009091F200992319F09AE39093E8009091E6
:100990001302992339F0909113029150909313020E
:1009A000992389F190912D02992339F090912D028C
:1009B000915090932D02992341F184FF10C08091B2
:1009C000E2008E7E81608093E2008091E1008F7E64
:1009D0008093E100809115028E7E806111C080FFBE
:1009E00016C08091E2008E7E80618093E20080914B
:1009F000E1008E7E8093E100809115028E7E816001
:100A00008093150204C05D9ACDCF289AD6CF9F91CE
:100A10008F910F900FBE0F901F9018951F920F92FD
:100A20000FB60F921124CF92DF92EF92FF920F93A5
:100A30001F932F933F934F935F936F937F938F9366
:100A40009F93AF93BF93EF93FF93CF93DF93CDB774
:100A5000DEB76C97DEBFCDBF1092E9008091E80051
:100A600083FFFAC168E0CE0145960E942D0282EF15
:100A70008093E8008D8987FF05C09091E80090FF82
:100A8000FCCF03C09EEF9093E800982F907609F07A
:100A9000C6C09E892F89188D91110CC0803829F409
:100AA000809116028093F10002C01092F100109222
:100AB000F10047C1422F50E0512B913051F4811188
:100AC00040C14130510509F03CC1809116028D7F33
:100AD0000BC0933061F4811134C14130510509F0EC
:100AE00030C1809116028260809316022AC195302F
:100AF00041F48091E80080FFFCCF20682093E30060
:100B000020C1963009F05FC0EB8CFC8C1092E9009C
:100B10001092120210921102123091F510921002EE
:100B200010920F020E94280499E0BE016F5F7F4F70
:100B3000DB01E92F1D92EA95E9F799831A8391E089
:100B40009E8390EA98879AEF9987209111023091BD
:100B50001202275F3F4F3C832B838D831092E90065
:100B60001092120210921102F0921002E0920F0203
:100B700049E050E080E00E9406020E942804E1C0A3
:100B8000F0921002E0920F020E94000DDC0112961A
:100B9000ED90FC901397E114F10409F4C0C0D70163
:100BA000ED91FC910480F581E02DBE016B5E7F4FDD
:100BB000C7010995009719F00CF0C3C0C6C0F70132
:100BC000E084F184E8CF973009F4BFC0983021F475
:100BD00081E08093F100B5C0993009F0B2C0837014
:100BE00009F0B3C0E3E1F1E081E021E036E3908178
:100BF000992361F08093E9002093EB009191909309
:100C0000EC003093ED008F5F873089F78EE780939B
:100C1000EA001092EA008F8980932E0292C08B8D99
:100C20009C8D1092E9001092120210921102909382
:100C3000100280930F02898D811156C08E899D8983
:100C4000913A59F4813209F080C047E050E064E005
:100C500071E080E00E94060274C0913209F075C014
:100C6000833289F4888D90E0982F88272F89822BF2
:100C7000A0E0B0E08093000190930101A0930201F5
:100C8000B09303015EC0803269F48091E80082FF76
:100C9000FCCF67E084E091E00E942D028BEF80930F
:100CA000E80006C0823209F04CC08F8980930B01A6
:100CB00080911402882319F0EEEFFAE002C0E0E020
:100CC000F8E08091040190910501A0910601B09196
:100CD0000701803B9440A105B10509F088C08091CF
:100CE0000B0180FFA0C083C00E94000DDC011296A2
:100CF0000D911C9113970115110539F1D801ED9152
:100D0000FC910190F081E02DBE016B5E7F4FC80128
:100D10000995811116C0F80100851185ECCF1130BD
:100D2000C1F0133091F48F89882309F455C08230C3
:100D3000E9F440E860E185E591E00E94C90188237B
:100D400021F08EEF8093E80087C081E28093EB0072
:100D500083C08B8D9C8D089711F410930E028091A7
:100D60000E02811136C066E671E038C0813029F488
:100D700040E86BE089E491E0E0CF833031F70E94F6
:100D8000000DDC011296ED90FC9013978E010F5F21
:100D90001F4F6801E114F10479F0D701ED91FC9146
:100DA0000680F781E02DB801C7010995080F111DD4
:100DB000F701E084F184EECFD8011C92F601019096
:100DC0000020E9F73197BF016C197D0940E0C601A9
:100DD000B4CF68E771E002C065E471E061157105A8
:100DE00009F4B3CFFB01449150E080E833CF0FB654
:100DF000F894A895809160008861809360001092BB
:100E000060000FBEA895EE3F2AE0F20739F080910E
:100E1000FE0A9091FF0A9183808393CF1092FF0A7C
:100E20001092FE0A8ECFEE3F8AE0F80731F0808103
:100E300091819093FF0A8093FE0A87E797E7918359
:100E400080839BE088E10FB6F894A89580936000BA
:100E50000FBE9093600075CF6C960FB6F894DEBF0E
:100E60000FBECDBFDF91CF91FF91EF91BF91AF91B9
:100E70009F918F917F916F915F914F913F912F91B2
:100E80001F910F91FF90EF90DF90CF900F900FBECA
:100E90000F901F901895362F90E0FC01EC51FF4FFA
:100EA0004491FC01EB53FE4F2491FC01EA55FE4FA7
:100EB0008491882309F451C04423E1F150E0FA0100
:100EC0003197EF30F105B0F5EA5AFF4F0C9430122C
:100ED000909180009F7707C0909180009F7D03C014
:100EE00090918000977F9093800024C094B59F7765
:100EF00002C094B59F7D94BD1DC0909190009F77D6
:100F000007C0909190009F7D03C090919000977FC3
:100F1000909390000FC09091C0009F7703C0909174
:100F2000C0009F7D9093C00005C09091C200977F44
:100F30009093C200E82FF0E0EE0FFF1FE657FE4F40
:100F4000A591B4918FB7F894EC91311103C020951D
:100F50002E2301C02E2B2C938FBF0895CF93DF93A8
:100F600090E0FC01EB53FE4F2491FC01EA55FE4F4B
:100F70008491882361F190E0880F991FFC01EA5267
:100F8000FF4FC591D491FC01E657FE4FA591B49156
:100F9000611109C09FB7F8948881209582238883C6
:100FA000EC912E230BC0623061F49FB7F894388126
:100FB000822F809583238883EC912E2B2C939FBFC7
:100FC00006C08FB7F894E8812E2B28838FBFDF915E
:100FD000CF910895823108F08251E82FF0E0E65376
:100FE000FF4FE49180917B00E3FB222720F930E062
:100FF00095E0220F331F9A95E1F78F7D282B2093E0
:101000007B00E770E064E0937C0080917A0080646C
:1010100080937A0080917A0086FDFCCF80917800E1
:101020002091790090E0922B08958F929F92AF9239
:10103000BF92CF92DF92EF92FF926B017C010E94F0
:10104000A0024B015C01C114D104E104F104F1F0F0
:101050000E94A002DC01CB0188199909AA09BB09E9
:10106000883E9340A105B10570F321E0C21AD10872
:10107000E108F10888EE880E83E0981EA11CB11CDF
:10108000C114D104E104F10419F7DDCFFF90EF9012
:10109000DF90CF90BF90AF909F908F9008958F92E8
:1010A0009F92AF92BF92CF92DF92EF92FF920F93F7
:1010B0001F93CF93DF935C016B018A0180910B0139
:1010C000882309F45EC080912E02882309F459C058
:1010D0008091150280FF05C08091E00082608093BE
:1010E000E000E8018AEFF82E93E0E92E2FE3822E4C
:1010F0003AE3932E209709F43DC08FB7F894E0921D
:10110000E9009091E80095FF06C09091F200282D2B
:10111000291B922F01C090E08FBF91110AC0FA9451
:10112000FF2079F161E070E080E090E00E94150816
:10113000E1CF292F30E0C217D3070CF49C2F8FB7D3
:10114000F894E092E9002091E80025FF11C0292FD2
:1011500030E0C21BD30BF601915020F04191409337
:10116000F100FACFC20ED31E9091E80095FF13C094
:101170008FBFC0CF5D9884E68093130210161106CE
:1011800044F081E090E0F5019383828380E090E079
:1011900005C0C80103C09092E800EACFDF91CF916B
:1011A0001F910F91FF90EF90DF90CF90BF90AF9085
:1011B0009F908F9008951F920F920FB60F92112457
:1011C0002F933F938F939F93AF93BF93809106028A
:1011D00090910702A0910802B09109023091050296
:1011E00023E0230F2D3720F40196A11DB11D05C06A
:1011F00026E8230F0296A11DB11D209305028093BE
:10120000060290930702A0930802B093090280910E
:101210000A0290910B02A0910C02B0910D0201966E
:10122000A11DB11D80930A0290930B02A0930C02A2
:10123000B0930D02BF91AF919F918F913F912F91EC
:101240000F900FBE0F901F9018951F920F920FB620
:101250000F9211242F933F934F935F936F937F933C
:101260008F939F93AF93BF93EF93FF93E0911902F6
:10127000F0911A02309709F451C0968DA685B78572
:10128000858591FF04C09C91892329F447C09C91D6
:10129000892309F043C0A389B4899C9185898095ED
:1012A00089238C93868997890197F1F7608D718DD9
:1012B000A685B785558538E020E0CB010197F1F789
:1012C000822F90E095958795282F4C91452309F022
:1012D0002068315091F7868D81FD2095809118020C
:1012E00090E001968F73992730911702381749F0D3
:1012F000A0911802B0E0AB53BE4F2C93809318021C
:1013000003C0868D8160868F828D938D0197F1F762
:10131000A389B4899C918589892B8C93FF91EF9146
:10132000BF91AF919F918F917F916F915F914F91FD
:101330003F912F910F900FBE0F901F901895E09145
:101340001902F0911A02E817F90769F4A389B48920
:101350009C918589809589238C9310921A02109212
:10136000190281E0089580E008951F920F920FB650
:101370000F9211242F933F934F935F936F937F931B
:101380008F939F93AF93BF93EF93FF938091B90097
:10139000887F803609F49CC068F5883209F45BC008
:1013A00090F4803109F454C038F4882309F4F6C06D
:1013B000883009F44DC0F6C0883109F44CC0803241
:1013C00009F45DC0EFC0803409F468C048F480338C
:1013D00009F455C0883309F0E5C080937502D8C080
:1013E000803509F44FC0883509F45DC0883409F0B0
:1013F000D9C0D6C0883909F4C7C0A8F4883709F421
:1014000067C038F4883609F463C0803709F460C0D7
:10141000C9C0883809F4B8C0803909F45FC0803881
:1014200009F0C0C05BC0803B09F486C038F4803A44
:1014300009F466C0883A09F47FC0B4C0803C09F45E
:10144000A7C0883C09F4A4C0883B09F48AC0AAC09C
:101450008091520210C0909174028091730298178B
:1014600070F5E091740281E08E0F80937402F0E0D9
:10147000ED5AFD4F80818093BB0085EC86C0809340
:1014800075028EC0E091740281E08E0F8093740229
:101490008091BB00F0E0ED5AFD4F80839091740283
:1014A000809173026EC0E091740281E08E0F809390
:1014B00074028091BB00F0E0ED5AFD4F8083809173
:1014C000760281116DC081E08093510284EA61C08F
:1014D00083E0809377021092C401CFCF8091C40142
:1014E000803208F051C0E091C40181E08E0F8093FA
:1014F000C4018091BB00F0E0EC55FE4F8083BDCF6E
:1015000085EC8093BC00109277028091C4018032F8
:1015100030F4E091C401F0E0EC55FE4F1082609190
:10152000C40170E0E091A201F091A30184EA91E08E
:1015300009951092C40136C084E08093770210921E
:10154000A1011092A001E0919E01F0919F010995E7
:101550008091A001811105C081E08093A0011092CB
:101560007E01E091A10181E08E0F8093A101F0E066
:10157000E258FE4F80818093BB009091A101809141
:10158000A001981708F479CF85E88093BC000AC0C1
:1015900085EC8093BC001092770204C01092750213
:1015A0000E946B03FF91EF91BF91AF919F918F913B
:1015B0007F916F915F914F913F912F910F900FBE4F
:1015C0000F901F9018951092770281E08093760219
:1015D0001092510261E082E00E944B0761E083E0DB
:1015E0000E944B07E9EBF0E080818E7F8083808151
:1015F0008D7F808388E48093B80085E48093BC006D
:1016000008950E9420150F931F93CF93DF93EC0151
:1016100088819981009729F02A813B812617370715
:1016200088F48B016F5F7F4F0E945614009761F022
:10163000998388831B830A832C813D81232B11F49A
:10164000FC01108281E001C080E0DF91CF911F9109
:101650000F910895EF92FF920F931F93CF93DF9313
:10166000FB0124813581E080F180FC01048115813A
:10167000E114F10411F480E017C02115310599F04F
:10168000EC01020F131FB8010E94030B882399F38A
:10169000288139818C819D81B701820F931F0E941F
:1016A0002E151D830C8381E0DF91CF911F910F9147
:1016B000FF90EF900895EF92FF920F931F93CF93B7
:1016C000DF93EC017B018A01BA010E94030B2881A0
:1016D000398181110DC02115310519F0C9010E9410
:1016E000BE13198218821D821C821B821A8206C0B8
:1016F0001D830C83B701C9010E942E15CE01DF9115
:10170000CF911F910F91FF90EF900895EF92FF926C
:101710000F931F93CF93DF93CDB7DEB7A1970FB68B
:10172000F894DEBF0FBECDBF7C01CB01BA01F7013B
:1017300011821082138212821582148242E0420FBB
:101740008E010F5F1F4F0E943515009769F0FC0155
:1017500001900020E9F73197AF01481B590BBC01FC
:10176000C7010E945B0B0EC0F70180819181009739
:1017700011F00E94BE13F7011182108215821482AB
:1017800013821282A1960FB6F894DEBF0FBECDBFB2
:10179000DF91CF911F910F91FF90EF900895BC01C1
:1017A000009791F0FC0101900020E9F73197AF011B
:1017B000481B590BE0919C02F0919D020280F3813D
:1017C000E02D8CE992E0099480E090E00895382FB4
:1017D00020919B0290919A02213208F049C0809199
:1017E00077028111FCCF42E040937702309376027A
:1017F0003FEF309375021092740220937302AAE7B0
:10180000B2E043E552E0FA013E2F341B321718F4E0
:101810003D913193F9CF1092520220915202990FCB
:10182000922B9093520290915102913061F4109258
:101830005102909152029093BB009091BC0093FD95
:10184000F8CF95EC01C095EE9093BC009091770293
:101850009230E1F3909175029F3F79F0809175028B
:10186000803241F080917502803331F084E005C010
:1018700081E003C082E001C083E0109279021092FF
:101880009B02109278020895CF93C62F91E0909317
:10189000780290E690939A021092790210929B023D
:1018A000682F8CEE92E00E94F9036C2F8CEE92E090
:1018B0000E94F90381E0CF910C94E70B909177029D
:1018C0009111FCCF613208F060E291E090937702D1
:1018D000909376022FEF2093750210927402260FD8
:1018E000209373029093520290915202880F892B99
:1018F0008093520280915102813061F41092510222
:10190000809152028093BB008091BC0083FDF8CF90
:1019100085EC01C085EE8093BC0080917702813018
:10192000E1F380917402861710F460917402A3E5CC
:10193000B2E021E332E0F9018E2F821B861718F402
:101940008D918193F9CF1092300260932F02862FF0
:10195000089591E09093780290E690939A02109205
:10196000790210929B02682F8CEE92E00E94F9039C
:1019700080E00E94E70B61E070E080E690E00E946A
:101980005E0C8CEE92E00E94AD03089586E20E9408
:10199000A90C682F6D7F86E20E94440C86E20E94AB
:1019A000A90C682F626086E20C94440CFC018091C3
:1019B0002E02811103C08FEF9FEF08959FB7F89417
:1019C00082E08093E9002091F20030E012161306C5
:1019D00014F421E030E02115310559F0289884E60F
:1019E00080932D028091F10080838091F200882302
:1019F00019F09FBFC90108958BE68093E800F9CFE5
:101A000080911D0381110DC082E08093190384E051
:101A100080931A0310921C0310921B0381E08093A1
:101A20001D0389E193E008958DE391E09093F9021D
:101A30008093F80288EF92E00C949F09CF93DF9394
:101A4000CDB7DEB760970FB6F894DEBF0FBECDBF3F
:101A5000789484B5826084BD84B5816084BD85B589
:101A6000826085BD85B5816085BD80916E00816095
:101A700080936E001092810080918100826080933B
:101A8000810080918100816080938100809180003D
:101A900081608093800080919100826080939100AA
:101AA000809191008160809391008091900081608D
:101AB000809390008091C10084608093C1008091E8
:101AC000C10082608093C1008091C10081608093D9
:101AD000C1008091C30081608093C3008091C000E9
:101AE00082608093C0008091C20081608093C200B8
:101AF00080917A00846080937A0080917A0082607D
:101B000080937A0080917A00816080937A0080913E
:101B10007A00806880937A0010922E02109216024A
:101B2000109215028091D70081608093D70080EADF
:101B30008093D80089B5806189BD89B5826089BDEF
:101B400009B400FEFDCF61E070E080E090E00E940B
:101B500015088091D8008F7C80618093D800809197
:101B6000E000807F8093E0008091E1008E7E809392
:101B7000E1008DE08093E200559A209AEEEFFFE7B6
:101B8000859194918B3F9C4D19F481E080931402D0
:101B90008FEF9FEF9093A9028093A80210921303F6
:101BA00010921203109211031092100310920F035F
:101BB00010920E038DE991E0909315038093140326
:101BC0008091040398EF980F943048F022EF280F8B
:101BD000243028F026EE280F233008F060C02DEBCB
:101BE00030E030930F0320930E032BE931E0309364
:101BF0001103209310032CE231E030931303209360
:101C00001203943058F092EF980F943038F08A51C4
:101C1000833008F472C3A0E0B0E071C3A8E6B0E07E
:101C2000E8E6F0E0808181608C938091040398EF76
:101C3000980F943058F022EF280F243038F026EE19
:101C4000280F233018F020E030E002C02BE630E00F
:101C500030930C0320930B03943010F49CEF09C0D5
:101C60008E3071F08F3071F0803171F0813171F010
:101C70009AEE980F81E001C0880F9A95EAF707C0A5
:101C800088E005C082E003C084E001C081E0809369
:101C90000D0380911403909115030197F1F7809142
:101CA000120390911303892B21F1809119029091D5
:101CB0001A0232E0883F9307E1F0009711F00E948A
:101CC0009F09809116038E7F80931603109218024D
:101CD0001092170288EF92E090931A0280931902F3
:101CE000E0910B03F0910C03908180910D03892BFF
:101CF000808389E491E00E94CF0B83E691E00E940B
:101D0000CF0B61E087E00E94AE0761E088E00E94AF
:101D1000AE0760E083E10E94AE071092300210929D
:101D20002F021092790210929B020E94E30A86E22F
:101D30000E94A90C682F606886E20E94440C86E22B
:101D40000E94A90C682F686386E20E94440C67E039
:101D500083E10E94440C1092300210922F021092E4
:101D6000790210929B020E94E30A10922C021092B8
:101D70002B0286E691E00E94CF0B83E691E00E9461
:101D8000CF0B61E088E00E944B0700912B0210917D
:101D90002C020C33110524F061E087E00E944B0710
:101DA0000E94C60C39E5E32E32E0F32E80E00E945B
:101DB000A90C81FD10C041E0E41AF10829F460E0AB
:101DC00070EC89E794EC6AC061E070E080E090E03C
:101DD0000E941508EBCF81E08093780250E6509383
:101DE0009A021092790210929B0261E08CEE92E0CE
:101DF0000E94F90380E00E94E70B63E070E080E658
:101E000090E00E945E0C26E6E22EF12C80912F02DB
:101E100090E020913002821B910903975CF481E0ED
:101E2000E81AF10861F261E070E080E090E00E9461
:101E30001508ECCF8CEE92E00E94AD03E82E8CEEFC
:101E400092E00E94AD03F82E8CEE92E00E94AD036A
:101E50003C01BE2CA12CB5016F29072E000C880B6C
:101E6000990B0E94BD176B017C01B301772794E0A9
:101E7000759567959A95E1F7072E000C880B990BDD
:101E80000E94BD1720E030E040E85DE30E94F817B3
:101E90009B01AC01C701B6010E944B12609327025F
:101EA000709328028093290290932A0280E00E9476
:101EB000A90C89E5E82E82E0F82E80E00E94A90CAA
:101EC00081FD10C091E0E91AF10829F460E070EC9E
:101ED00089E794EC7EC061E070E080E090E00E94D1
:101EE0001508EBCF81E08093780220E620939A02D8
:101EF0001092790210929B0264E08CEE92E00E94B4
:101F0000F90380E00E94E70B62E070E080E690E079
:101F10000E945E0CB6E6EB2EF12C80912F0290E031
:101F200020913002821B910902975CF431E0E31AA0
:101F3000F10861F261E070E080E090E00E94150835
:101F4000ECCF8CEE92E00E94AD03F82E8CEE92E086
:101F50000E94AD03682E0E94C60CF7FC02C0712CD3
:101F60000EC09F2C812CB401660D711D7195619579
:101F70007109F72E462F407F642E772473946F2DBE
:101F800070E080E090E00E94BD176B017C01662D3F
:101F900070E0A4E075956795AA95E1F7072E000C0F
:101FA000880B990B0E94BD1720E030E040E85DE30C
:101FB0000E94F8179B01AC01C701B6010E944B12A9
:101FC000772039F09B01AC0160E070E0CB010E940A
:101FD0004A126B017C01C0922302D0922402E0924B
:101FE0002502F092260281E08093780280E48093BB
:101FF0009A021092790210929B0265EF8CEE92E0A9
:102000000E94F90381E00E94E70B67E370E080E043
:1020100090E00E94150863E070E080E490E00E9488
:102020005E0CF5E6EF2EF12C80912F0290E02091CE
:102030003002821B9109039794F461E070E080E024
:1020400090E00E94150851E0E51AF10869F7C12CEB
:1020500090E8D92E99E7E92E94E4F92E62C08CEE2F
:1020600092E00E94AD03E82E8CEE92E00E94AD0358
:10207000F82E8CEE92E00E94AD033E2C212CB10193
:102080006F296B01E12CF12CFE2CED2CDC2CCC24E7
:10209000A7019601282BDA01C90127E130E0C12C04
:1020A000E0E8DE2EE8E9EE2EF12C2C013D01022EB7
:1020B00004C076946794579447940A94D2F740FEEC
:1020C00004C08C259D25AE25BF25F694E794D794B2
:1020D000C794215031092730310539F781111AC0D1
:1020E0006C7F80E090E00E94BB1720E030E040E889
:1020F00057E30E94F81720E030E04AEF52E40E94D4
:10210000F81720E030E040EC50E40E944A126B01E6
:102110007C0107C0C12C80ECD82E89E7E82E84E42E
:10212000F82EC0921F02D0922002E0922102F0927B
:10213000220285E10E94EA07BC01990F880B990BE6
:102140000E94BD179B01AC0183E12D873E874F871D
:10215000588B0E94EA07BC01990F880B990B0E94CB
:10216000BD172B013C012D853E854F85588963E3C2
:1021700073E383E590E40E94B712A30192010E94E9
:10218000F81760931B0270931C0280931D029093BA
:102190001E0260E088E00E944B070C3311050CF42E
:1021A00095C018861F821A8619861C861B8641E0F8
:1021B00050E069E771E0CE0107960E945B0B22E0D8
:1021C000B701A601CE0101960E94860BBE016F5F8A
:1021D0007F4FCE0107960E942A0B89819A810E9427
:1021E000BE1340911B0250911C0260911D02709120
:1021F0001E0222E0CE0101960E94860BBE016F5F97
:102200007F4FCE0107960E942A0B89819A810E94F6
:10221000BE134091230250912402609125027091D7
:10222000260222E0CE0101960E94860BBE016F5F5E
:102230007F4FCE0107960E942A0B89819A810E94C6
:10224000BE1340912702509128026091290270919B
:102250002A0222E0CE0101960E94860BBE016F5F2A
:102260007F4FCE0107960E942A0B89819A810E9496
:10227000BE130B851C850F5F1F4FB801CE0107965B
:102280000E94030B882361F02F8138858B859C8504
:102290006BE771E0820F931F0E942E151C870B873E
:1022A0004B855C856F81788588EF92E00E943A02C9
:1022B0008F8198850E94BE1360E087E00E944B07E3
:1022C0004FEF5FEF50932C0240932B0280912B0233
:1022D00090912C02019690932C0280932B0268EE31
:1022E00073E080E090E00E94150880E090E0892B88
:1022F00009F447CD0E94000044CDA8E6B0E0833049
:1023000008F48ECCE0E0F0E08DCC10929F021092A9
:102310009E0288EE93E0A0E0B0E08093A00290934C
:10232000A102A093A202B093A3022DE131E0309369
:102330009D0220939C022FEF3FEF3093A902209340
:10234000A8021092EF021092EE028093F002909396
:10235000F102A093F202B093F3022DE231E0309348
:10236000ED022093EC021092FB021092FA0280938D
:10237000FC029093FD02A093FE02B093FF028DE356
:1023800091E09093F9028093F80210920F0310925B
:102390000E03109211031092100310921303109267
:1023A00012031092150310921403609116036E7FAE
:1023B0006D7F609316036695617081E068278BE0FE
:1023C0000E944B0761E08BE00E94AE07E0EDF1E078
:1023D000E491E0930803E1EBF1E0E491F0E0EE0F2B
:1023E000FF1FE657FE4F8591949190930A038093C7
:1023F000090360E08AE00E94AE078091160381FD28
:1024000004C061E08AE00E944B078AE080930403E5
:10241000EFECF1E0E491E0930503E0EBF1E0E4910F
:10242000F0E0EE0FFF1FE856FE4F859194919093D8
:10243000070380930603089597FB072E16F4009474
:1024400007D077FD09D00E94361207FC05D03EF474
:10245000909581959F4F0895709561957F4F089550
:10246000EE0FFF1F0590F491E02D0994AA1BBB1BF2
:1024700051E107C0AA1FBB1FA617B70710F0A61B84
:10248000B70B881F991F5A95A9F780959095BC01A5
:10249000CD0108955058BB27AA270E9462120C94C0
:1024A0007C180E946E1838F00E94751820F039F4DC
:1024B0009F3F19F426F40C946B180EF4E095E7FB9B
:1024C0000C946518E92F0E948D1858F3BA1762070B
:1024D00073078407950720F079F4A6F50C94AF18DC
:1024E0000EF4E0950B2EBA2FA02D0B01B90190012F
:1024F0000C01CA01A0011124FF27591B99F0593F73
:1025000050F4503E68F11A16F040A22F232F342FBA
:102510004427585FF3CF469537952795A795F04008
:102520005395C9F77EF41F16BA0B620B730B840B1D
:10253000BAF09150A1F0FF0FBB1F661F771F881FD5
:10254000C2F70EC0BA0F621F731F841F48F487952D
:1025500077956795B795F7959E3F08F0B0CF93951F
:10256000880F08F09927EE0F9795879508950E9498
:10257000CB120C947C180E94751858F00E946E18AB
:1025800040F029F45F3F29F00C94651851110C9428
:10259000B0180C946B180E948D1868F39923B1F34E
:1025A000552391F3951B550BBB27AA276217730779
:1025B000840738F09F5F5F4F220F331F441FAA1F0D
:1025C000A9F335D00E2E3AF0E0E832D091505040C9
:1025D000E695001CCAF72BD0FE2F29D0660F771F77
:1025E000881FBB1F261737074807AB07B0E809F05D
:1025F000BB0B802DBF01FF2793585F4F3AF09E3FE2
:10260000510578F00C9465180C94B0185F3FE4F312
:10261000983ED4F3869577956795B795F7959F5F24
:10262000C9F7880F911D9695879597F90895E1E070
:10263000660F771F881FBB1F621773078407BA07CF
:1026400020F0621B730B840BBA0BEE1F88F7E0952A
:102650000895CF93DF938230910510F482E090E0EB
:10266000E0912703F091280320E030E0C0E0D0E0C3
:10267000309711F14081518148175907C0F0481730
:10268000590761F482819381209719F09B838A8393
:102690002BC0909328038093270326C02115310572
:1026A00019F04217530718F49A01BE01DF01EF0138
:1026B0000280F381E02DDCCF2115310509F1281BC3
:1026C000390B2430310590F412968D919C9113971B
:1026D0006115710521F0FB019383828304C09093FF
:1026E000280380932703FD01329644C0FD01E20FC9
:1026F000F31F81939193225031092D933C933AC05B
:102700002091250330912603232B41F420910E01C3
:1027100030910F01309326032093250320910C0163
:1027200030910D012115310541F42DB73EB740918F
:10273000100150911101241B350BE0912503F091FC
:102740002603E217F307A0F42E1B3F0B28173907C7
:1027500078F0AC014E5F5F4F2417350748F04E0FFD
:102760005F1F50932603409325038193919302C0EA
:10277000E0E0F0E0CF01DF91CF9108950F931F9338
:10278000CF93DF93009709F48CC0FC01329713823A
:10279000128200912703109128030115110581F47D
:1027A00020813181820F931F2091250330912603D0
:1027B0002817390779F5F0932603E093250371C0B4
:1027C000D80140E050E0AE17BF0750F412962D91AB
:1027D0003C911397AD012115310509F1D901F3CFD2
:1027E0009D01DA013383228360817181860F971FF7
:1027F0008217930769F4EC0128813981260F371F6E
:102800002E5F3F4F318320838A819B819383828314
:10281000452B29F4F0932803E093270342C0139635
:10282000FC93EE931297ED01499159919E01240F6B
:10283000351FE217F30771F480819181840F951F92
:10284000029611969C938E938281938113969C930A
:102850008E931297E0E0F0E0D80112968D919C9152
:102860001397009719F0F8018C01F6CF8D919C9188
:1028700098012E5F3F4F820F931F209125033091C7
:1028800026032817390769F4309729F41092280392
:102890001092270302C01382128210932603009322
:1028A0002503DF91CF911F910F910895A0E0B0E033
:1028B000ECE5F4E10C94BA18EC01009721F4CB019B
:1028C0000E942913B8C0FC01E60FF71F9C0122509B
:1028D0003109E217F30708F4ACC0D9010D911C913E
:1028E000119706171707B0F00530110508F49FC0BF
:1028F000C80104978617970708F499C00250110978
:10290000061B170B019311936D937C93CF010E94CB
:10291000BE138DC05B01A01AB10A4C01800E911E3E
:10292000A0912703B091280340E050E0E12CF12C66
:10293000109709F44AC0A815B905D1F56D907C909F
:102940001197630182E0C80ED11CCA14DB0480F128
:10295000A3014A195B096A0182E0C80ED11C1296D4
:10296000BC9012971396AC91B5E0CB16D10440F011
:10297000B282A38351834083D9016D937C930AC0B3
:102980000E5F1F4FC301800F911FF9019183808358
:10299000EB2DFA2FE114F10431F0D7011396FC93DB
:1029A000EE93129744C0F0932803E09327033FC0AF
:1029B0008D919C9111974817590708F4AC017D013E
:1029C00012960D90BC91A02DB3CF809125039091CC
:1029D000260388159905E1F446175707C8F4809136
:1029E0000C0190910D01009741F48DB79EB7409175
:1029F000100150911101841B950BE817F907C8F4D9
:102A0000F0932603E0932503F901718360830FC0DF
:102A1000CB010E9429137C01009759F0A801BE0147
:102A20000E942515CE010E94BE13C70104C0CE012D
:102A300002C080E090E0CDB7DEB7EEE00C94D6188F
:102A400081E090E0F8940C94ED18FB01DC0102C0E9
:102A500001900D9241505040D8F70895FB01DC01E0
:102A600001900D920020E1F70895EF920F931F93CC
:102A7000CF93DF93E80147FD02C034E001C034E1A9
:102A8000E42F440FFF0BF7FF03C0F195E195F10927
:102A9000E32E022F2E2FAE010E945515CE01DF919D
:102AA000CF911F910F91EF9008954F925F926F9287
:102AB0007F929F92AF92BF92CF92DF92EF92FF925E
:102AC0000F931F93CF93DF93CDB7DEB729970FB640
:102AD000F894DEBF0FBECDBF6A01122FB02E2BE3DC
:102AE000201720F0FF24F394F00E02C0BCE3FB2E6D
:102AF0000F2D27E0AE014F5F5F4F0E94E316AC0140
:102B00008981982F9970913031F0E1FC06C0E0FE88
:102B100006C090E205C09DE203C09BE201C090E0C8
:102B2000EE2DE07183FF3CC0911102C083E001C033
:102B300084E0811718F4212F281B01C020E0E11147
:102B40000BC0F601822F30E2882319F031938150B7
:102B5000FBCFC20ED11C20E0992329F0D6019C9313
:102B6000F60131966F01C6010396E2FE0AC03EE40B
:102B7000D6013C9341E411964C93119712963C93E5
:102B800006C03EE6F601308341E641833283FC0114
:102B9000322F40E2332309F442C041933150FACF3F
:102BA00082FF44C0911102C083E001C084E081171C
:102BB00018F4212F281B01C020E0E1110BC0F60101
:102BC000822F30E2882319F031938150FBCFC20E5F
:102BD000D11C20E0992329F0D6019C93F60131966F
:102BE0006F01C6010396E2FE0BC039E4D6013C93A7
:102BF0003EE411963C93119736E412963C9307C03D
:102C000039E6F60130833EE6318336E63283FC0155
:102C1000322F40E2332319F041933150FBCFFC01B6
:102C2000E20FF11D10828EEF9FEFB7C0F1E091111E
:102C300001C0F0E06F2F70E01416150624F49A011D
:102C40002F5F3F4F02C021E030E0260F371FBB202F
:102C500029F06B2D70E06F5F7F4F02C060E070E085
:102C6000260F371F612F70E0261737071CF4121B41
:102C7000212F01C020E03E2D387159F4D601322FAA
:102C800060E2332319F06D933150FBCFC20ED11C9B
:102C900020E0FF2331F0D6019C93B6016F5F7F4F98
:102CA0006B01E1110BC0F601922F30E3992319F06B
:102CB00031939150FBCFC20ED11C20E09F2D940F79
:102CC0003A81782F7071A72E84FF03C0313309F445
:102CD0009150191624F4993018F098E001C091E051
:102CE000E42F852F57FF02C0E0E080E06E2F782FA1
:102CF000E0E0F0E0AEE29A2E3A01691A71082A018A
:102D0000461A570A0B2D10E01195019511096F3FD6
:102D10008FEF780729F4D6019C92C60101966C01C9
:102D20004617570784F0661677066CF47F01E40CAB
:102D3000F51CA1E0B0E0AC0FBD1FEA0EFB1ED701F1
:102D40001196BC9002C090E3B92E61507109319682
:102D5000C60101967C016017710724F0D601BC9270
:102D60006C01D5CF6417750741F4363320F4353341
:102D700021F4A11002C081E3B82EF601B082F70160
:102D8000822F90E2882319F091938150FBCFF701B5
:102D9000E20FF11D108280E090E029960FB6F894C2
:102DA000DEBF0FBECDBFDF91CF911F910F91FF907E
:102DB000EF90DF90CF90BF90AF909F907F906F90FB
:102DC0005F904F900895283008F027E03327DA010C
:102DD000990F311D87FD916000966105710539F4E9
:102DE00032602E5F3D9330E32A95E1F708959F3FCF
:102DF00030F080387105610509F03C5F3C5F3D9320
:102E0000913008F08068911DDF93CF931F930F934B
:102E1000FF92EF92192F987F9695E92F96959695A8
:102E2000E90FFF27E25CFD4F99273327EE24FF24AB
:102E3000A701E70105900894079428F4360FE71ED0
:102E4000F81E491F511D660F771F881F991F069492
:102E5000A1F70590079428F4E70EF81E491F561FA6
:102E6000C11D770F881F991F661F0694A1F7059053
:102E7000079428F4F80E491F561FC71FD11D880F4D
:102E8000991F661F771F0694A1F70590079420F4F9
:102E9000490F561FC71FD81F990F661F771F881F1E
:102EA0000694A9F784911095177041F0D695C795AF
:102EB00057954795F794E7941A95C1F7E4EEF1E03A
:102EC00068941590159135916591959105907FE2E3
:102ED0007395E118F10A430B560BC90BD009C0F7E3
:102EE000E10CF11E431F561FC91FD01D7EF4703325
:102EF00011F48A95E6CFE894015030F0080F0AF4F7
:102F00000027021708F4202F2395022F7A3328F088
:102F100079E37D932A95E9F710C07D932A9589F688
:102F2000069497956795379517951794E118F10AC8
:102F3000430B560BC90BD00998F023957E917395DE
:102F40007A3308F070E37C932013B8F77E917061B8
:102F50007D9330F0839571E37D9370E32A95E1F7DB
:102F60001124EF90FF900F911F91CF91DF9199273E
:102F700087FD90950895E89409C097FB3EF49095DD
:102F80008095709561957F4F8F4F9F4F9923A9F042
:102F9000F92F96E9BB279395F695879577956795D1
:102FA000B795F111F8CFFAF4BB0F11F460FF1BC015
:102FB0006F5F7F4F8F4F9F4F16C0882311F096E9A8
:102FC00011C0772321F09EE8872F762F05C0662356
:102FD00071F096E8862F70E060E02AF09A95660F0F
:102FE000771F881FDAF7880F9695879597F90895C8
:102FF0000E940B180C947C180E946E1838F00E94E6
:10300000751820F0952311F00C9465180C946B182A
:1030100011240C94B0180E948D1870F3959FC1F381
:10302000950F50E0551F629FF001729FBB27F00D76
:10303000B11D639FAA27F00DB11DAA1F649F6627CB
:10304000B00DA11D661F829F2227B00DA11D621F1A
:10305000739FB00DA11D621F839FA00D611D221FD4
:10306000749F3327A00D611D231F849F600D211DB8
:10307000822F762F6A2F11249F5750409AF0F1F03B
:1030800088234AF0EE0FFF1FBB1F661F771F881FA4
:1030900091505040A9F79E3F510580F00C9465185F
:1030A0000C94B0185F3FE4F3983ED4F3869577957F
:1030B0006795B795F795E7959F5FC1F7FE2B880F4A
:1030C000911D9695879597F9089597F99F6780E8E0
:1030D00070E060E008959FEF80EC089500240A946A
:1030E0001616170618060906089500240A941216E3
:1030F0001306140605060895092E0394000C11F416
:10310000882352F0BB0F40F4BF2B11F460FF04C0C2
:103110006F5F7F4F8F4F9F4F089557FD9058440F1B
:10312000551F59F05F3F71F04795880F97FB991F26
:1031300061F09F3F79F087950895121613061406E3
:10314000551FF2CF4695F1DF08C016161706180670
:10315000991FF1CF86957105610508940895E8944B
:10316000BB2766277727CB0197F908952F923F92C7
:103170004F925F926F927F928F929F92AF92BF9287
:10318000CF92DF92EF92FF920F931F93CF93DF9333
:10319000CDB7DEB7CA1BDB0B0FB6F894DEBF0FBE90
:1031A000CDBF09942A88398848885F846E847D84DD
:1031B0008C849B84AA84B984C884DF80EE80FD80DF
:1031C0000C811B81AA81B981CE0FD11D0FB6F89455
:1031D000DEBF0FBECDBFED01089511E0C0E7D1E025
:1031E00004C0FE010E9430122196C137D107C9F7F1
:0431F000F894FFCF81
:1031F400FFFFFFFF00E100000000000000002903C2
:10320400800000C180810000000000000065024FC2
:103214000886027E045A047B0200000000F903C9F8
:1032240003C103AD039E039D0300000000DE023AC8
:103234000232034A03C502DD02496E696369616CA7
:10324400697A616E646F2053656E736F7265732E55
:103254002E2E000D0A0053656E736F726573206520
:0E3264006E206C696E65612E0023007E0000F6
:2070000055C000006EC000006CC000006AC0000068C0000066C0000064C0000062C0000043
:2070200060C000005EC00000F2C400005AC0000058C0000056C0000054C0000052C00000EE
:2070400050C0000078C000004CC000004AC0000048C0000046C0000044C0000042C00000BE
:2070600040C000003EC000003CC000003AC0000038C0000036C0000034C0000032C0000048
:2070800030C000002EC000002CC000002AC0000028C0000026C0000024C0000022C00000A8
:2070A00020C000001EC000001CC0000011241FBECFEFDAE0DEBFCDBF11E0A0E0B1E0E2E3BC
:2070C000FFE702C005900D92A83AB107D9F711E0A8EAB1E001C01D92AE3BB107E1F78FD30B
:2070E00026C78ECFF89410926F0010928100109285001092840081E085BF15BE47985D9AEB
:20710000289A0C94000008952091B2013091B3012F5F3F4F3093B3012093B201932F37FFA6
:2071200003C08EEF831B982F990F921710F447980895479A08951F920F920FB60F9211246E
:207140002F938F939F93EF93FF9310928500109284008091A8019091A901009741F00197D3
:207160009093A9018093A801892B09F45D9A8091AA019091AB01009741F001979093AB0126
:207180008093AA01892B09F4289AE0E0F0E0859194918F5F9F4F49F08091AC019091AD0151
:2071A00001969093AD018093AC01FF91EF919F918F912F910F900FBE0F901F90189584E0BC
:2071C0008093E9000DC08091E8008B778093E80003C08EB3882351F08091E80082FFF9CFBE
:2071E0008091E80085FFEFCF8091F1000895982F83E08093E9008091E80085FD0DC0809136
:20720000E8008E778093E80003C08EB3882369F08091E80080FFF9CF9093F1005D9884E6CB
:2072200090E09093A9018093A80108954F925F926F927F928F929F92AF92BF92CF92DF921E
:20724000EF92FF920F931F93CF93DF9384E08093E9008091E80082FF57C2289884E690E067
:207260009093AB018093AA01AADF182F853481F48CE49DE19093AD018093AC0107B600FC4B
:20728000FDCFF999FECF81E180935700E89503C0843519F494DF8DE00DC28C34E1F38035F9
:2072A000D1F3843721F484E4A2DF80E003C2813611F489E5FFC18134B1F481DF182F7FDFE3
:2072C00090E0880F991FAA2797FDA095BA2F312F330F20E0442737FD4095542F822B932B68
:2072E000A42BB52BB8C1803711F483E5E3C1833549F4C0E0D1E089917ADF21E0C730D20714
:20730000D1F7D9C1863521F481E371DF80E3D2C1833731F487E86BDF85E969DF8EE1CAC149
:207320008536B9F4E0E0F0E093E085E090935700E89507B600FCFDCF80935700E89507B65D
:2073400000FCFDCFE058FF4FA0E7E030FA0771F7A2CF823739F4E1E0F0E089E08093570024
:207360008491A8C1863439F4E0E0F0E089E08093570084919FC18E3439F4E3E0F0E089E0E5
:2073800080935700849196C1813539F4E2E0F0E089E08093570084918DC1823631F489E521
:2073A00026DF80E024DF80E885C1823419F0873609F0E5C01092AD011092AC0100DF082FE8
:2073C000FEDEF82EFCDE682E8554823008F071C1902F80E0CF2DD0E0C82BD92B10926F00B3
:2073E000173609F04BC081E180935700E895DD24CC24C3943FC0E090AE01F090AF010091CC
:20740000B0011091B101B6E46B16D9F4ED2DF0E0EE29FF29E4918E2FEADEDD2081F082E08D
:2074200090E0A0E0B0E0E80EF91E0A1F1B1FE092AE01F092AF010093B0011093B101DC2470
:2074400018C0D801C701B695A7959795879559D5CEDE82E090E0A0E0B0E0E80EF91E0A1FF2
:207460001B1FE092AE01F092AF010093B0011093B1012197209709F0BECF7DC08090AE01F5
:207480009090AF01A090B001B090B10196E4691609F05DC083E0F40180935700E89507B63E
:2074A00000FCFDCF54C0F6E46F1661F5772031F1E090AE01F090AF010091B0011091B1019E
:2074C0007EDED82ECC24852D90E08C299D29F7010C0140925700E895112482E090E0A0E08B
:2074E000B0E0E80EF91E0A1F1B1FE092AE01F092AF010093B0011093B10102C060DE582E1A
:20750000742423C0E090AE01F090AF010091B0011091B10116950795F794E79450DE682FFA
:20752000C701F7D48091AE019091AF01A091B001B091B1010296A11DB11D8093AE01909349
:20754000AF01A093B001B093B101219704C05524772444244394209709F0A5CF96E46916B6
:2075600041F485E0F40180935700E89507B600FCFDCF8DE03CDE82E080936F009CC0833492
:2075800071F40091AE011091AF0119DE90E021E0F8010C0120935700E89511247CCE8336C8
:2075A00019F5E090AE01F090AF010091B0011091B10105DEF701E16090E021E00C0120938C
:2075C0005700E895112482E090E0A0E0B0E0E80EF91E0A1F1B1FE092AE01F092AF0100936A
:2075E000B0011093B10157CE8D3661F4E091AE01F091AF0185E080935700E89507B600FCF2
:20760000FDCF49CE823551F4E091AE01F091AF0105911491812FEBDD802F4CC0843421F5FE
:20762000E090AE01F090AF010091B0011091B10116950795F794E794C2DD682FC70169D4DE
:207640008091AE019091AF01A091B001B091B1010296A11DB11D8093AE019093AF01A093D8
:20766000B001B093B10117CE843609F5E090AE01F090AF010091B0011091B101D801C70142
:20768000B695A795979587953CD4B1DD82E090E0A0E0B0E0E80EF91E0A1F1B1FE092AE010A
:2076A000F092AF010093B0011093B10104C08B3111F08FE39CDD83E08093E9009091E8002B
:2076C0008091E8008E778093E80095FF04C010C08EB38823C9F08091E80080FFF9CF809193
:2076E000E8008E778093E80003C08EB3882361F08091E80080FFF9CF84E08093E9008091F1
:20770000E8008B778093E800DF91CF911F910F91FF90EF90DF90CF90BF90AF909F908F90AC
:207720007F906F905F904F9008959091B601892F8F77813249F58091B7018032A1F081328A
:2077400019F5913A09F58091E800877F8093E8008DE091E067E070E00BD28091E8008B770B
:207760008093E8000895913279F48091E800877F8093E8008DE091E067E070E05DD2809192
:20778000E8008E778093E800089582E061EC42E0B5D083E061E842E1B1D084E060E842E1EF
:2077A000ADC084B7877F84BF88E10FB6F89480936000109260000FBE20E880E090E00FB63F
:2077C000F89420936100809361000FBE81E085BF92E095BF3F9A209A559AE1E6F0E02083A1
:2077E000108247985D9A289A109289008AEF8093880090936F0083E080938100F0C0409116
:20780000000850910108109201081092000894B714BE88E10FB6F8948093600010926000D5
:207820000FBE292F30E0F901E270F07091FD18C090FF05C0859194918F5F9F4F81F423FFFF
:207840000FC08091090190910A014817590741F0E0E0F0E0859194918F5F9F4F09F042DC64
:20786000A0DF78941092AD011092AC010CC0DEDC36D38091AC019091AD0181549F4110F00D
:207880001092140141DC80911401882381F78091E00081608093E00025DC80E090E0089598
:2078A000FA01923049F0933061F09130F9F485E191E022E130E01EC087E291E02EE330E04D
:2078C00019C0882329F485E691E024E030E012C0813029F489E691E022E230E00BC0823006
:2078E00029F48DE891E028E130E004C080E090E020E030E091838083C90108958093E9004E
:207900008091EB0081608093EB001092ED006093EC004093ED008091EE00881F8827881F62
:2079200008958091B60188238CF403C08EB38823B1F08091E80082FFF9CF8091E8008B772A
:207940008093E80008958EB3882349F08091E80080FFF9CF8091E8008E778093E800089594
:20796000EF92FF920F931F9345D04CD008ED10E0F80180818F77808380818068808380819B
:207980008F7D808319BC1EBA1092B40180EEE82EF12CF70180818B7F8083F8018081816052
:2079A000808380E060E042E0A9DFE1EEF0E080818E7F8083E2EEF0E0808181608083808144
:2079C00088608083F70180818E7F8083F8018081806180831F910F91FF90EF900895E7ED06
:2079E000F0E08081816080838AE482BF81E08093B501B6CFE8EDF0E080818E7F808310921C
:207A0000E20008951092DA001092E10008951F920F920FB60F9211242F933F934F935F93F6
:207A20006F937F938F939F93AF93BF93EF93FF938091DA0080FF1BC08091D80080FF17C0B2
:207A40008091DA008E7F8093DA008091D90080FF0BC080E189BD82E189BD09B400FEFDCF36
:207A600081E08EBB3BD203C019BC1EBA37D28091E10080FF17C08091E20080FF13C0809138
:207A8000E2008E7F8093E2008091E20080618093E2008091D80080628093D80019BC85E049
:207AA0008EBB1CD28091E10084FF2CC08091E20084FF28C080E189BD82E189BD09B400FEC5
:207AC000FDCF8091D8008F7D8093D8008091E1008F7E8093E1008091E2008F7E8093E20012
:207AE0008091E20081608093E2008091B401882331F48091E30087FD02C081E001C084E067
:207B00008EBBECD18091E10083FF21C08091E20083FF1DC08091E100877F8093E10082E06A
:207B20008EBB1092B4018091E1008E7F8093E1008091E2008E7F8093E2008091E2008061E9
:207B40008093E20080E060E042E0D8DEC7D1FF91EF91BF91AF919F918F917F916F915F9130
:207B60004F913F912F910F900FBE0F901F9018959C014091BC015091BD014617570718F49D
:207B8000F90190E044C06115710511F0AB01F8CF8091E8008E778093E80040E050E0F0CF0F
:207BA0008EB3882309F444C0853009F443C08091E80083FF02C081E008958091E80082FD70
:207BC00031C08091E80080FF22C08091F3009091F200782F60E0292F30E0262B372B07C07A
:207BE00081918093F100415050402F5F3F4F4115510519F02830310598F390E02830310566
:207C000009F491E08091E8008E778093E8004115510531F6992321F605C08EB3882341F075
:207C2000853041F08091E80082FFF7CF80E0089582E0089583E008959C016115710529F47C
:207C40008091E8008B778093E800F90126C08EB3882391F1853091F18091E80083FF02C06C
:207C600081E008958091E80082FFF1CF06C08091F10081936150704059F02091F300809191
:207C8000F200322F20E090E0822B932B892B79F78091E8008B778093E80061157105B9F601
:207CA00005C08EB3882341F0853041F08091E80080FFF7CF80E0089582E0089583E00895C2
:207CC0000F931F93DF93CF9300D0CDB7DEB7E6EBF1E08091F100819381E0EE3BF807C9F792
:207CE00024DD8091E80083FFE4C08091B6019091B701953009F46DC0963040F4913081F1A7
:207D0000913070F0933009F0D4C02AC0983009F4A3C0993009F4B2C0963009F0CAC07CC023
:207D2000803809F4C6C0823809F0C3C08091BA0187708093E9008091EB001092E9002091DB
:207D4000E800277F2093E80090E025E0969587952A95E1F781708093F1001092F10087C0D8
:207D6000882319F0823009F0A4C08F71823009F0A0C08091B801882331F52091BA01277097
:207D800009F497C02093E9008091EB0080FF1BC0933021F48091EB00806213C08091EB0018
:207DA00080618093EB0081E090E002C0880F991F2A95E2F78093EA001092EA008091EB00E5
:207DC00088608093EB001092E9008091E800877F51C0882309F06DC01091B8011F770FB79B
:207DE000F8948091E800877F8093E8009ADD8091E80080FFFCCF8091E3008078812B809398
:207E0000E30080688093E300112311F482E001C083E08EBB0FBF4DC08058823008F049C033
:207E20008091B8019091B9016091BA01AE014F5F5F4F36DDBC01009709F43BC08091E8008E
:207E4000877F8093E80089819A8192DE8091E8008B778093E8002DC0803859F58091E800AA
:207E6000877F8093E8008091B4018093F1008091E8008E778093E80054DD1BC08823C9F4CA
:207E80009091B8019230A8F48091E800877F8093E8009093B40145DD8091B401882331F420
:207EA0008091E30087FD02C081E001C084E08EBB6CDC8091E80083FF0AC08091EB0080624E
:207EC0008093EB008091E800877F8093E8000F900F90CF91DF911F910F91089508951F9360
:207EE0008EB3882361F01091E9001092E9008091E80083FF01C0E4DE17701093E9001F916F
:207F00000895F999FECF92BD81BDF89A992780B50895262FF999FECF1FBA92BD81BD20BDBD
:207F20000FB6F894FA9AF99A0FBE01960895F894FFCF4341544552494E4100777700080031
:207F40000000000000080112011001020000084123360001000201000109023E00020100FF
:207F600080320904000001020201000524001001042402040524060001070582030800FF0C
:207F800009040100020A000000070504021000010705830210000104030904220341007216
:207FA000006400750069006E006F0020004C0065006F006E006100720064006F0000001836
:1A7FC00003410072006400750069006E006F0020004C004C004300000000D7
:00000001FF
